:100000000C945E000C9474030C949B030C94860077
:100010000C9486000C9486000C9486000C941703B4
:100020000C9486000C9486000C9486000C94860038
:100030000C9486000C9486000C9486000C94860028
:100040000C94C2030C9486000C94EB010C941D02DA
:100050000C9486000C9486000C9486000C94860008
:100060000C9486000C948600020000000800020137
:10007000000003040700000000000000000102046B
:10008000081020408001020408102001020408101A
:100090002004040404040404040202020202020311
:1000A000030303030300000000250028002B0000C9
:1000B000000000240027002A00004D0211241FBE6A
:1000C000CFEFD8E0DEBFCDBF11E0A0E0B1E0E4ECBF
:1000D000FAE002C005900D92A632B107D9F721E0EF
:1000E000A6E2B1E001C01D92A33DB207E1F710E026
:1000F000CEE5D0E004C02197FE010E945A05CD351F
:10010000D107C9F70E947C020C9460050C94000092
:1001100061E08DE00E94CE0426E040E855E260E018
:1001200070E086E291E00C94890161E08DE00E942C
:100130000A0568EE73E080E090E00E94310460E020
:100140008DE00E940A0568EE73E080E090E00E9476
:10015000310465E071E086E291E00C94CB02FC0191
:10016000918D228D892F90E0805C9F4F821B910999
:100170008F7399270895FC01918D828D981731F026
:10018000828DE80FF11D858D90E008958FEF9FEF30
:100190000895FC01918D828D981761F0A28DAE0FAC
:1001A000BF2FB11D5D968C91928D9F5F9F73928F33
:1001B00090E008958FEF9FEF0895FC01538D448DDB
:1001C000252F30E0842F90E0821B930B541710F002
:1001D000CF9608950197089583E492E0892B49F022
:1001E00080E090E0892B29F00E94430281110C9459
:1001F00000000895FC01A48DA80FB92FB11DA35ACA
:10020000BF4F2C91848D90E001968F739927848F36
:10021000A689B7892C93A089B1898C918370806459
:100220008C93938D848D981306C00288F389E02DFA
:1002300080818F7D80830895CF93DF93EC01888D3B
:100240008823B9F0AA89BB89E889F9898C9185FD51
:1002500003C0808186FD0DC00FB607FCF7CF8C91DF
:1002600085FFF2CF808185FFEDCFCE010E94FA009D
:10027000E9CFDF91CF910895EF92FF920F931F93F3
:10028000CF93DF93EC0181E0888F9B8D8C8D981349
:100290001AC0E889F989808185FF15C09FB7F89455
:1002A000EE89FF896083E889F989808183708064A1
:1002B00080839FBF81E090E0DF91CF911F910F91EC
:1002C000FF90EF900895F62E0B8D10E00F5F1F4FFB
:1002D0000F731127E02E8C8D8E110CC00FB607FC0A
:1002E000FACFE889F989808185FFF5CFCE010E9498
:1002F000FA00F1CFEB8DEC0FFD2FF11DE35AFF4F0C
:10030000F0829FB7F8940B8FEA89FB898081806225
:10031000CFCFCF92DF92EF92FF921F93CF93DF93D5
:10032000EC016A017B01122FE889F98982E0808360
:10033000C11481EED806E104F104A1F060E079E097
:100340008DE390E0A70196010E9438052150310904
:10035000410951095695479537952795211580E113
:10036000380798F0E889F989108260E874E88EE12E
:1003700090E0A70196010E943805215031094109FA
:1003800051095695479537952795EC85FD8530831E
:10039000EE85FF852083188EEC89FD891083EA891C
:1003A000FB89808180618083EA89FB898081886004
:1003B0008083EA89FB89808180688083EA89FB8960
:1003C00080818F7D8083DF91CF911F91FF90EF908F
:1003D000DF90CF9008951F920F920FB60F921124C5
:1003E0002F938F939F93EF93FF93E0913601F091BA
:1003F00037018081E0913C01F0913D0182FD1BC0FD
:10040000908180913F018F5F8F732091400182170F
:1004100041F0E0913F01F0E0EA5DFE4F958F80935F
:100420003F01FF91EF919F918F912F910F900FBE00
:100430000F901F9018958081F4CF1F920F920FB6E6
:100440000F9211242F933F934F935F936F937F935A
:100450008F939F93AF93BF93EF93FF9386E291E0C7
:100460000E94FA00FF91EF91BF91AF919F918F9100
:100470007F916F915F914F913F912F910F900FBEA0
:100480000F901F90189586E291E00E94AF0021E046
:10049000892B09F420E0822F0895E6E2F1E013822F
:1004A000128288EE93E0A0E0B0E084839583A68377
:1004B000B78385E191E09183808385EC90E0958717
:1004C000848784EC90E09787868780EC90E0918B1E
:1004D000808B81EC90E0938B828B82EC90E0958B0B
:1004E000848B86EC90E0978B868B118E128E138E08
:1004F000148E0895089508950E946A040E947B0254
:100500000E948800CCEED0E00E9495002097E1F395
:100510000E94EC00F9CFAF92BF92CF92DF92EF92A0
:10052000FF920F931F93CF93DF936C017B018B019D
:10053000040F151FEB015E01AE18BF08C017D107ED
:1005400059F06991D601ED91FC910190F081E02D77
:10055000C6010995892B79F7C501DF91CF911F91CC
:100560000F91FF90EF90DF90CF90BF90AF900895E4
:10057000FB0101900020E9F73197AF01461B570BB3
:10058000DC01ED91FC910280F381E02D099463E29E
:1005900071E00C94B8020F931F93CF93DF938C01FB
:1005A000D0E0C0E06115710519F00E94B802EC01BD
:1005B000C8010E94C7028C0F9D1FDF91CF911F9130
:1005C0000F910895813039F018F0823051F008957C
:1005D00010926E00089580916F008D7F80936F0060
:1005E0000895809170008D7F8093700081E08093EA
:1005F000B0008091B100887F84608093B100109238
:10060000B3000895CF93C82F80910001C8130DC087
:10061000E8E6F0E084919FEF909300010E94E202EF
:1006200060E08C2FCF910C940A058FEFF7CF1F92CB
:100630000F920FB60F9211242F933F934F935F9316
:100640006F937F938F939F93AF93BF93EF93FF939A
:100650008091C6019091C701A091C801B091C901D4
:10066000892B8A2B8B2BD1F19091C301E091C4018E
:10067000F091C5018081892780838091C601909186
:10068000C701A091C801B091C901181619061A0630
:100690001B069CF48091C6019091C701A091C801EE
:1006A000B091C9010197A109B1098093C601909346
:1006B000C701A093C801B093C901FF91EF91BF9109
:1006C000AF919F918F917F916F915F914F913F91EA
:1006D0002F910F900FBE0F901F90189580910001E1
:1006E0000E940203EACF08951F920F920FB60F9255
:1006F00011242F933F934F935F936F937F938F9327
:100700009F93AF93BF93EF93FF93E0910101F0911B
:1007100002010995FF91EF91BF91AF919F918F9148
:100720007F916F915F914F913F912F910F900FBEED
:100730000F901F9018951F920F920FB60F921124D1
:100740002F933F934F935F936F937F938F939F93D9
:10075000AF93BF93EF93FF93E0910301F0910401F6
:100760000995FF91EF91BF91AF919F918F917F91EB
:100770006F915F914F913F912F910F900FBE0F900E
:100780001F9018951F920F920FB60F9211242F935E
:100790003F938F939F93AF93BF938091CB019091A1
:1007A000CC01A091CD01B091CE013091CA0123E0DE
:1007B000230F2D3758F50196A11DB11D2093CA01B5
:1007C0008093CB019093CC01A093CD01B093CE0147
:1007D0008091CF019091D001A091D101B091D2012F
:1007E0000196A11DB11D8093CF019093D001A093DC
:1007F000D101B093D201BF91AF919F918F913F9161
:100800002F910F900FBE0F901F90189526E8230F81
:100810000296A11DB11DD2CF3FB7F8948091CF01B0
:100820009091D001A091D101B091D20126B5A89BA1
:1008300005C02F3F19F00196A11DB11D3FBFBA2F72
:10084000A92F982F8827BC01CD01620F711D811D32
:10085000911D42E0660F771F881F991F4A95D1F7B7
:1008600008958F929F92AF92BF92CF92DF92EF92B4
:10087000FF926B017C010E940C044B015C01C114CE
:10088000D104E104F104E9F00E947A020E940C0410
:10089000681979098A099B09683E734081059105A9
:1008A00070F321E0C21AD108E108F10888EE880E41
:1008B00083E0981EA11CB11CC114D104E104F10411
:1008C00029F7FF90EF90DF90CF90BF90AF909F906F
:1008D0008F900895789484B5826084BD84B58160DA
:1008E00084BD85B5826085BD85B5816085BDEEE638
:1008F000F0E0808181608083E1E8F0E01082808117
:1009000082608083808181608083E0E8F0E0808184
:1009100081608083E1EBF0E0808184608083E0EBA4
:10092000F0E0808181608083EAE7F0E0808184608C
:1009300080838081826080838081816080838081E8
:10094000806880831092C1000895833081F028F47C
:10095000813099F08230A9F008958730A9F088306D
:10096000C9F08430B1F4809180008F7D03C0809104
:1009700080008F7780938000089584B58F7784BD41
:10098000089584B58F7DFBCF8091B0008F778093E1
:10099000B00008958091B0008F7DF9CFCF93DF93A1
:1009A00090E0FC01E358FF4F24918F569F4FFC01CC
:1009B00084918823C9F090E0880F991FFC01E155CC
:1009C000FF4FA591B491FC01EB55FF4FC591D49118
:1009D00061110DC09FB7F8948C91209582238C9360
:1009E0008881282328839FBFDF91CF9108956230AB
:1009F00051F49FB7F8943C91822F809583238C9378
:100A0000E8812E2BEFCF8FB7F894EC912E2B2C93FF
:100A10008FBFEACF1F93CF93DF93282F30E0F901E8
:100A2000E759FF4F8491F901E358FF4FD491F90141
:100A3000EF56FF4FC491CC23A9F0162F81110E94CD
:100A4000A504EC2FF0E0EE0FFF1FEB55FF4FA59133
:100A5000B4918FB7F894EC91111108C0D095DE23B2
:100A6000DC938FBFDF91CF911F910895DE2BF8CFDC
:100A7000A1E21A2EAA1BBB1BFD010DC0AA1FBB1FA2
:100A8000EE1FFF1FA217B307E407F50720F0A21B14
:100A9000B30BE40BF50B661F771F881F991F1A9481
:100AA00069F760957095809590959B01AC01BD01AB
:100AB000CF010895EE0FFF1F0590F491E02D0994EA
:040AC000F894FFCFD8
:100AC400FF7303730350756C73652073656E742E26
:100AD40000000000003C018B02DD001C01AF00C9D6
:060AE40000BB000D0A003A
:00000001FF
